:060000000A128A110C280F
:10000800FE00030EF2000A08F3000A128A111528EE
:100018000A128A110F28F701F80183010A128A11BE
:10002800FE28831203130C1F1A281B287C281F0C78
:10003800F000700C0F39003A031D232824284928A2
:100048001E08F0000310700C7C3E95001E08013954
:10005800F000F00EF00D17087006DF3970069700F3
:10006800831603131E08F00007300310F00CFF3E40
:10007800031D39287008F100F10E831203131708C5
:100088007106EF39710697007B281F0CF000700C81
:100098000F39013A031D5128522877281E08F0000D
:1000A8000310700C7C3E9B001E080139F000F00E16
:1000B800F00D1D087006DF3970069D0083160313C6
:1000C8001E08F00007300310F00CFF3E031D6728E0
:1000D8007008F100F10E831203131D087106EF3941
:1000E80071069D007B281E08F0007008F7000C13AD
:1000F8000B1D7F28802890280130F0007008F80731
:1001080077087802031889288A288C2808148D28EB
:100118000810063081000B1173088A00720E8300E4
:10012800FE0E7E0E0900073083160317880089012A
:100138000330831603138500831203138501831686
:100148000313880183120313880170308316031385
:100158008F040F149F131F129F12831203131F087B
:100168003F3980389F00C3309F051F142130F400A9
:10017800F40BBC2883160313071587143F3083122A
:10018800031397051708F0390C3897001D08F03944
:100198000C389D000F309500CF3097050F309B002D
:1001A8009D121D1283160313811281110108F8395B
:1001B800033881000630831203138100FF30831651
:1001C80003139200033083120313920412158C1048
:1001D8008C1CEF28F028EC288C10831603130711C9
:1001E80087108B170B170C178B16831203130C131E
:1001F8000B1108000A128A1197200A128A11831219
:1002080003139F180829092903291F0CF500750CE9
:100218000F39003A031D1129122917291F08C3395C
:1002280004389F0027291F0CF500750C0F39013A77
:10023800031D1F29202925291F08C33908389F00B5
:100248002729C3309F050330F6009730F500F50BDA
:100258002B29F60B2B293029831203139F1403290A
:060268000A128A110C28A5
:08400000FF3FFF3FFF3FFF3FC0
:04400E00D420FF3F7C
:00000001FF
